:0400000077EF01F0A5
:1002000000000F0EC16E956A9468836A82A60BEF98
:1002100001F00DEF01F025EF01F0096A82B613EF4E
:1002200001F015EF01F017EF01F006EF01F00950B2
:1002300044EC01F0836E040E086E3E0EE82EFED7ED
:10024000082EFCD7092A0EEF01F082B62AEF01F042
:100250002CEF01F006EF01F00A6A82A632EF01F0FE
:1002600034EF01F036EF01F006EF01F00AC083FF32
:10027000040E086E3E0EE82EFED7082EFCD70A2A82
:100280002DEF01F000EF00F0046E056A000E076E1E
:10029000000E066E06500708016E06C002F004C08C
:1002A00003F0022A56EF01F0D8900332022E54EFE9
:1002B00001F0010E0316012A60EF01F0D890033619
:1002C000012E5EEF01F003500512064A072A07BE11
:1002D00073EF01F0075009E1080E065CD8A073EF38
:1002E00001F075EF01F04AEF01F005501200000136
:0402F00001EF01F029
:020000040030CA
:0E000000FF08191EFF8385FF03C003E00340C5
:00000001FF
