:0400000057EF00F0C6
:06000800088226EF01F062
:100018000880D8CF03F0E8CF04F0E0CF05F0F0A0D7
:1000280018EF00F01AEF00F04FEF00F0F0A61FEF06
:1000380000F021EF00F04FEF00F0F09082B227EFD0
:1000480000F02AEF00F0010E2BEF00F0000EFF0A7F
:10005800026E024682500218FD0B0218826E066A72
:1000680082B639EF00F03BEF00F03DEF00F04FEFC4
:1000780000F006C083FF040E026E3E0EE82EFED787
:10008800022EFCD7062A0628D8A44DEF00F04FEF21
:1000980000F034EF00F005C0E0FF04C0E8FF03C043
:0A00A800D8FF0890100048EF01F0A7
:1002000000000F0EC16ED08E9368956AFD0E946E3D
:10021000F288F292F086F090F09CF28EF28CF18CE3
:10022000F18A0F0E836E620E076E660EE82EFED701
:10023000072EFCD7836A620E076E660EE82EFED785
:10024000072EFCD711EF01F057EF00F0F2A22BEFD1
:1002500001F02DEF01F046EF01F0F2A832EF01F0CE
:1002600034EF01F046EF01F0F29282B23AEF01F082
:100270003DEF01F0010E3EEF01F0000EFF0A016EAE
:10028000014682500118FD0B0118826E0892110080
:0A02900008900892000101EF01F050
:020000040030CA
:0E000000FF08191EFF8385FF03C003E00340C5
:00000001FF
