:0400000070EF04F0A9
:10020000005541525420496E697469616C697A6580
:10021000640D0A00256400000C50D96EDA6ADFCF45
:10022000F6FF020EF76E0800F550250AD8A41BEF62
:1002300001F01DEF01F0D6EF01F00C50D96EDA6A33
:10024000DF2A000E6D6E000E6C6E6CC070F06E6872
:100250006F680C50D96EDA6ADF50106E10C0F6FF6E
:10026000020EF76E0800F550640AD8B43AEF01F0B8
:100270003CEF01F04AEF01F010C0F6FF020EF76EFE
:100280000800F550690AD8A448EF01F04AEF01F0E0
:10029000D0EF01F00D50D96EDA6A020EDF26DF5C76
:1002A000D96EDA6ADECF11F0DECF12F00C50D96EC3
:1002B000DA6A1028DF6E200E156E12BE62EF01F0B2
:1002C00065EF01F0010E66EF01F0000E0F6E1506EE
:1002D00015504C0FD96EDA6A11C001F012C002F04D
:1002E000000E046E0A0E036EE0EC02F001C007F08F
:1002F00002C008F046EC04F00750300FDF6E11C06A
:1003000001F012C002F0000E046E0A0E036E7FECC4
:1003100002F001C011F002C012F011501210D8B456
:1003200094EF01F096EF01F09EEF01F01550D8A484
:100330009CEF01F09EEF01F067EF01F01550D8B48B
:10034000A4EF01F0A6EF01F0C5EF01F00F50D8B413
:10035000ACEF01F0AEEF01F0C5EF01F0150615505E
:100360004C0FD96EDA6A2D0EDF6EC5EF01F0155015
:100370004C0FD96EDA6ADF500E6E0E50016E026AB3
:100380000BC003F037EC03F0152A200E1518D8A483
:10039000CCEF01F0CEEF01F0B7EF01F0E7EF01F0A5
:1003A0000C50D96EDA6ADF2AE7EF01F00C50D96EF3
:1003B000DA6ADFCFF6FF020EF76E0800F550016E25
:1003C000026A0BC003F037EC03F0D0EF01F012002B
:1003D000700ED312800E016E250E026E000E036E9B
:1003E000000E046E86EC04F00B0E416E260E406E7D
:1003F0005E0EE82EFED7402EFCD7412EFAD7010E16
:10040000026E0250D8A4020E036EDEEC03F0060E5C
:10041000C16E9384F80EC016C050C70B0809C06E99
:10042000C08EC250C30B2009C26EC280000E466E41
:10043000000E476E000E486E000E496E000E4B6EA9
:10044000000E4A6EC282C2B228EF02F02AEF02F01A
:1004500023EF02F0C350C4CF40F0416A40C041F0E6
:10046000406A4010446E4150456E44C040F045C063
:1004700041F0000E41BEFF0E426E436E40504626D4
:100480004150472242504822435049224A4A4B2A6F
:100490004B5009E1640E4A5CD8A051EF02F053EFD3
:1004A00002F022EF02F046C001F047C002F048C05F
:1004B00003F049C004F0640E056E000E066E000ED7
:1004C000076E000E086E8CEC03F001C02AF002C02B
:1004D0002BF060EC04F0110E026E0250D8A4020E54
:1004E000036EDEEC03F01A0E406EF80EE82EFED717
:1004F000402EFCD700D016EF02F000EF00F0066AA5
:1005000004BE87EF02F085EF02F08DEF02F0036C7E
:10051000041ED8B0042A010E066E02BE94EF02F04B
:1005200092EF02F09AEF02F0016C021ED8B0022A9C
:10053000010E061A000E086E000E076E035004101E
:10054000D8B4A5EF02F0A7EF02F0CFEF02F0010E52
:10055000056EAFEF02F0D89003360436052A04AEDC
:10056000B4EF02F0B6EF02F0ABEF02F0D89007362E
:1005700008360350015C04500258D8A0C2EF02F0C4
:10058000C4EF02F0C9EF02F00350015E0450025ABA
:100590000780D89004320332052EB6EF02F00650E1
:1005A000D8B4D5EF02F0D7EF02F0DBEF02F0076C22
:1005B000081ED8B0082A07C001F008C002F01200D7
:1005C000066A02BEE8EF02F0E6EF02F0EEEF02F09C
:1005D000016C021ED8B0022A010E066E04BEF5EFB1
:1005E00002F0F3EF02F0F9EF02F0036C041ED8B052
:1005F000042A03500410D8B400EF03F002EF03F014
:1006000026EF03F0010E056E0AEF03F0D8900336D3
:100610000436052A04AE0FEF03F011EF03F006EFE6
:1006200003F00350015C04500258D8A01AEF03F005
:100630001CEF03F020EF03F00350015E0450025A58
:10064000D89004320332052E11EF03F00650D8B4CF
:100650002CEF03F02EEF03F032EF03F0016C021EDB
:10066000D8B0022A01C001F002C002F0120003500B
:10067000D8B43DEF03F03FEF03F047EF03F0035032
:10068000D8A445EF03F047EF03F04CEF03F001501F
:100690008FEC04F08BEF03F00350D96EDA6A090E89
:1006A000D926DE50DE10D8B458EF03F05AEF03F02D
:1006B00073EF03F00350D96EDA6A090ED92603509E
:1006C000E16EE26A020EE126DE50E65CE650800A48
:1006D000086EDE50800A0858D8B071EF03F073EF4F
:1006E00003F08BEF03F00350D96EDA6A020ED926BD
:1006F000DF50046E0350D96EDA6ADF500424D96EDD
:10070000DA6A01C0DFFF0350D96EDA6A020ED92619
:10071000DE2A000EDD221200000E096E000E0A6EA7
:10072000000E0B6E000E0C6E055006100710081020
:10073000D8B49DEF03F09FEF03F0D5EF03F0010E67
:100740000D6EA9EF03F0D890053606360736083649
:100750000D2A08AEAEEF03F0B0EF03F0A3EF03F005
:10076000D89009360A360B360C360550015C065017
:1007700002580750035808500458D8A0C2EF03F09D
:10078000C4EF03F0CDEF03F00550015E0650025AAE
:100790000750035A0850045A0980D890083207328B
:1007A000063205320D2EB0EF03F009C001F00AC089
:1007B00002F00BC003F00CC004F01200F4EF03F0E1
:1007C00002C0F6FF03C0F7FFF86A010EF76403D01A
:1007D0000800F55005D0F6CFE1FFF7CFE2FFE75074
:1007E0007BEC04F0024A032A02C0F6FF03C0F7FFC5
:1007F000F86A010EF76403D00800F55005D0F6CF73
:10080000E1FFF7CFE2FFE7500009D8A40AEF04F0B8
:100810000CEF04F0E0EF03F0120017C019F019EF2D
:1008200004F016C00BF0190E0C6E18C00DF00CEC95
:1008300001F019C0F6FF020EF76E0800F55000092E
:10084000D8A425EF04F027EF04F011EF04F0000E18
:10085000176E000E166E12001C0E1E6E1AC01FF0D0
:10086000000E226E000E216E000E296E000E286E04
:100870001F0E166E1BC017F01E0E186E0DEC04F046
:100880001A502124D96EDA6ADF6A120008BE4BEFD3
:1008900004F04DEF04F053EF04F007C007F008C078
:1008A00008F05FEF04F007C009F008C00AF0091E65
:1008B0000A1E094A0A2A09C007F00AC008F01200F5
:1008C0002C0E1A6E140E1B6E2AC01CF02BC01DF0CD
:1008D0002CEC04F02C0E026E036ADEEC03F0120026
:1008E00000EE4CF0250EEE6AE806FDE1000EF86E13
:1008F0000001E8EF01F0016EACA281EF04F083EF9C
:1009000004F07CEF04F001C0ADFF12000C0EAF6EDE
:10091000AC94949C948EAB8EAC8AAB88120012007F
:020000040030CA
:0E000000FF08191EFF8385FF03C003E00340C5
:00000001FF
