:040000006EEF01F0AE
:10020000005541525420496E697469616C697A6580
:10021000640D0A007265636569766564203A202082
:100220000000700ED312800E016E250E026E000EBD
:10023000036E000E046E65EC01F0010E026E3BECE5
:1002400001F05CEC01F0056E0550D8B42AEF01F026
:100250002CEF01F021EF01F0140E026E3BEC01F0E7
:10026000055051EC01F0110E026E3BEC01F021EF54
:1002700001F000EF00F044EF01F002C0F6FF0800CB
:10028000F55051EC01F0022A02C0F6FF0800F550CB
:100290000009D8A44EEF01F050EF01F03DEF01F05E
:1002A0001200016EACA257EF01F059EF01F052EFCE
:1002B00001F001C0ADFF12009EAA61EF01F063EFF3
:1002C00001F05CEF01F0AE5012000C0EAF6EAC947A
:1002D000949C948EAB8EAC8AAB881200000EF86EA4
:0A02E000020EF76E000111EF01F0AD
:020000040030CA
:0E000000FF08191EFF8385FF03C003E00340C5
:00000001FF
